{
	"data": {
		"bytecode": {
			"linkReferences": {},
			"object": "608060405234801561001057600080fd5b506110b9806100206000396000f3fe60806040526004361061004e5760003560e01c80630186a4231461005a57806306fdde031461009a578063b7f84d97146100c5578063d1e46a6014610105578063ff38ec0f1461012157610055565b3661005557005b600080fd5b34801561006657600080fd5b50610081600480360381019061007c9190610a44565b61014a565b6040516100919493929190610cfa565b60405180910390f35b3480156100a657600080fd5b506100af6102c0565b6040516100bc9190610cd8565b60405180910390f35b3480156100d157600080fd5b506100ec60048036038101906100e79190610a17565b61034e565b6040516100fc9493929190610d4d565b60405180910390f35b61011f600480360381019061011a9190610a8d565b610433565b005b34801561012d57600080fd5b5061014860048036038101906101439190610b10565b61079a565b005b60018180516020810182018051848252602083016020850120818352809550505050505060009150905080600001805461018390610f2c565b80601f01602080910402602001604051908101604052809291908181526020018280546101af90610f2c565b80156101fc5780601f106101d1576101008083540402835291602001916101fc565b820191906000526020600020905b8154815290600101906020018083116101df57829003601f168201915b50505050509080600101805461021190610f2c565b80601f016020809104026020016040519081016040528092919081815260200182805461023d90610f2c565b801561028a5780601f1061025f5761010080835404028352916020019161028a565b820191906000526020600020905b81548152906001019060200180831161026d57829003601f168201915b5050505050908060020154908060030160009054906101000a900473ffffffffffffffffffffffffffffffffffffffff16905084565b600080546102cd90610f2c565b80601f01602080910402602001604051908101604052809291908181526020018280546102f990610f2c565b80156103465780601f1061031b57610100808354040283529160200191610346565b820191906000526020600020905b81548152906001019060200180831161032957829003601f168201915b505050505081565b600260205280600052604060002060009150905080600001805461037190610f2c565b80601f016020809104026020016040519081016040528092919081815260200182805461039d90610f2c565b80156103ea5780601f106103bf576101008083540402835291602001916103ea565b820191906000526020600020905b8154815290600101906020018083116103cd57829003601f168201915b5050505050908060010154908060020160009054906101000a900473ffffffffffffffffffffffffffffffffffffffff16908060020160149054906101000a900460ff16905084565b83600260008473ffffffffffffffffffffffffffffffffffffffff1673ffffffffffffffffffffffffffffffffffffffff16815260200190815260200160002060000190805190602001906104899291906108da565b5082600260008473ffffffffffffffffffffffffffffffffffffffff1673ffffffffffffffffffffffffffffffffffffffff1681526020019081526020016000206001018190555081600260008473ffffffffffffffffffffffffffffffffffffffff1673ffffffffffffffffffffffffffffffffffffffff16815260200190815260200160002060020160006101000a81548173ffffffffffffffffffffffffffffffffffffffff021916908373ffffffffffffffffffffffffffffffffffffffff1602179055506000341161055f57600080fd5b8073ffffffffffffffffffffffffffffffffffffffff166108fc349081150290604051600060405180830381858888f193505050501580156105a5573d6000803e3d6000fd5b506000600260008473ffffffffffffffffffffffffffffffffffffffff1673ffffffffffffffffffffffffffffffffffffffff16815260200190815260200160002060020160146101000a81548160ff0219169083600181111561060c5761060b610f8f565b5b02179055507f90631be4066f06410554548e1727a018dc8a557b25b4d9f95428f291bfd94b0c600260008473ffffffffffffffffffffffffffffffffffffffff1673ffffffffffffffffffffffffffffffffffffffff168152602001908152602001600020600001600260008573ffffffffffffffffffffffffffffffffffffffff1673ffffffffffffffffffffffffffffffffffffffff16815260200190815260200160002060010154600260008673ffffffffffffffffffffffffffffffffffffffff1673ffffffffffffffffffffffffffffffffffffffff16815260200190815260200160002060020160149054906101000a900460ff16600181111561071957610718610f8f565b5b600260008773ffffffffffffffffffffffffffffffffffffffff1673ffffffffffffffffffffffffffffffffffffffff16815260200190815260200160002060020160009054906101000a900473ffffffffffffffffffffffffffffffffffffffff1660405161078c9493929190610d99565b60405180910390a150505050565b60008351116107a857600080fd5b600082116107b557600080fd5b60405180608001604052808281526020018481526020018381526020013373ffffffffffffffffffffffffffffffffffffffff168152506001826040516107fc9190610cc1565b908152602001604051809103902060008201518160000190805190602001906108269291906108da565b5060208201518160010190805190602001906108439291906108da565b506040820151816002015560608201518160030160006101000a81548173ffffffffffffffffffffffffffffffffffffffff021916908373ffffffffffffffffffffffffffffffffffffffff1602179055509050507f813a92ef225faa2ae1b6a264461c81de5095ae357a69677fbb89264d2b0a0c45818484336040516108cd9493929190610cfa565b60405180910390a1505050565b8280546108e690610f2c565b90600052602060002090601f016020900481019282610908576000855561094f565b82601f1061092157805160ff191683800117855561094f565b8280016001018555821561094f579182015b8281111561094e578251825591602001919060010190610933565b5b50905061095c9190610960565b5090565b5b80821115610979576000816000905550600101610961565b5090565b600061099061098b84610e0a565b610de5565b9050828152602081018484840111156109ac576109ab611021565b5b6109b7848285610eea565b509392505050565b6000813590506109ce81611055565b92915050565b600082601f8301126109e9576109e861101c565b5b81356109f984826020860161097d565b91505092915050565b600081359050610a118161106c565b92915050565b600060208284031215610a2d57610a2c61102b565b5b6000610a3b848285016109bf565b91505092915050565b600060208284031215610a5a57610a5961102b565b5b600082013567ffffffffffffffff811115610a7857610a77611026565b5b610a84848285016109d4565b91505092915050565b60008060008060808587031215610aa757610aa661102b565b5b600085013567ffffffffffffffff811115610ac557610ac4611026565b5b610ad1878288016109d4565b9450506020610ae287828801610a02565b9350506040610af3878288016109bf565b9250506060610b04878288016109bf565b91505092959194509250565b600080600060608486031215610b2957610b2861102b565b5b600084013567ffffffffffffffff811115610b4757610b46611026565b5b610b53868287016109d4565b9350506020610b6486828701610a02565b925050604084013567ffffffffffffffff811115610b8557610b84611026565b5b610b91868287016109d4565b9150509250925092565b610ba481610e89565b82525050565b610bb381610e77565b82525050565b610bc281610ed8565b82525050565b6000610bd382610e50565b610bdd8185610e5b565b9350610bed818560208601610ef9565b610bf681611030565b840191505092915050565b6000610c0c82610e50565b610c168185610e6c565b9350610c26818560208601610ef9565b80840191505092915050565b60008154610c3f81610f2c565b610c498186610e5b565b94506001821660008114610c645760018114610c7657610ca9565b60ff1983168652602086019350610ca9565b610c7f85610e3b565b60005b83811015610ca157815481890152600182019150602081019050610c82565b808801955050505b50505092915050565b610cbb81610ece565b82525050565b6000610ccd8284610c01565b915081905092915050565b60006020820190508181036000830152610cf28184610bc8565b905092915050565b60006080820190508181036000830152610d148187610bc8565b90508181036020830152610d288186610bc8565b9050610d376040830185610cb2565b610d446060830184610b9b565b95945050505050565b60006080820190508181036000830152610d678187610bc8565b9050610d766020830186610cb2565b610d836040830185610baa565b610d906060830184610bb9565b95945050505050565b60006080820190508181036000830152610db38187610c32565b9050610dc26020830186610cb2565b610dcf6040830185610cb2565b610ddc6060830184610baa565b95945050505050565b6000610def610e00565b9050610dfb8282610f5e565b919050565b6000604051905090565b600067ffffffffffffffff821115610e2557610e24610fed565b5b610e2e82611030565b9050602081019050919050565b60008190508160005260206000209050919050565b600081519050919050565b600082825260208201905092915050565b600081905092915050565b6000610e8282610eae565b9050919050565b6000610e9482610eae565b9050919050565b6000819050610ea982611041565b919050565b600073ffffffffffffffffffffffffffffffffffffffff82169050919050565b6000819050919050565b6000610ee382610e9b565b9050919050565b82818337600083830152505050565b60005b83811015610f17578082015181840152602081019050610efc565b83811115610f26576000848401525b50505050565b60006002820490506001821680610f4457607f821691505b60208210811415610f5857610f57610fbe565b5b50919050565b610f6782611030565b810181811067ffffffffffffffff82111715610f8657610f85610fed565b5b80604052505050565b7f4e487b7100000000000000000000000000000000000000000000000000000000600052602160045260246000fd5b7f4e487b7100000000000000000000000000000000000000000000000000000000600052602260045260246000fd5b7f4e487b7100000000000000000000000000000000000000000000000000000000600052604160045260246000fd5b600080fd5b600080fd5b600080fd5b600080fd5b6000601f19601f8301169050919050565b6002811061105257611051610f8f565b5b50565b61105e81610e77565b811461106957600080fd5b50565b61107581610ece565b811461108057600080fd5b5056fea26469706673582212204f066f0a81e5c54f063984aa48cb24f408d5cc07144cc1fdc83c69f47ff8a7dd64736f6c63430008060033",
			"opcodes": "PUSH1 0x80 PUSH1 0x40 MSTORE CALLVALUE DUP1 ISZERO PUSH2 0x10 JUMPI PUSH1 0x0 DUP1 REVERT JUMPDEST POP PUSH2 0x10B9 DUP1 PUSH2 0x20 PUSH1 0x0 CODECOPY PUSH1 0x0 RETURN INVALID PUSH1 0x80 PUSH1 0x40 MSTORE PUSH1 0x4 CALLDATASIZE LT PUSH2 0x4E JUMPI PUSH1 0x0 CALLDATALOAD PUSH1 0xE0 SHR DUP1 PUSH4 0x186A423 EQ PUSH2 0x5A JUMPI DUP1 PUSH4 0x6FDDE03 EQ PUSH2 0x9A JUMPI DUP1 PUSH4 0xB7F84D97 EQ PUSH2 0xC5 JUMPI DUP1 PUSH4 0xD1E46A60 EQ PUSH2 0x105 JUMPI DUP1 PUSH4 0xFF38EC0F EQ PUSH2 0x121 JUMPI PUSH2 0x55 JUMP JUMPDEST CALLDATASIZE PUSH2 0x55 JUMPI STOP JUMPDEST PUSH1 0x0 DUP1 REVERT JUMPDEST CALLVALUE DUP1 ISZERO PUSH2 0x66 JUMPI PUSH1 0x0 DUP1 REVERT JUMPDEST POP PUSH2 0x81 PUSH1 0x4 DUP1 CALLDATASIZE SUB DUP2 ADD SWAP1 PUSH2 0x7C SWAP2 SWAP1 PUSH2 0xA44 JUMP JUMPDEST PUSH2 0x14A JUMP JUMPDEST PUSH1 0x40 MLOAD PUSH2 0x91 SWAP5 SWAP4 SWAP3 SWAP2 SWAP1 PUSH2 0xCFA JUMP JUMPDEST PUSH1 0x40 MLOAD DUP1 SWAP2 SUB SWAP1 RETURN JUMPDEST CALLVALUE DUP1 ISZERO PUSH2 0xA6 JUMPI PUSH1 0x0 DUP1 REVERT JUMPDEST POP PUSH2 0xAF PUSH2 0x2C0 JUMP JUMPDEST PUSH1 0x40 MLOAD PUSH2 0xBC SWAP2 SWAP1 PUSH2 0xCD8 JUMP JUMPDEST PUSH1 0x40 MLOAD DUP1 SWAP2 SUB SWAP1 RETURN JUMPDEST CALLVALUE DUP1 ISZERO PUSH2 0xD1 JUMPI PUSH1 0x0 DUP1 REVERT JUMPDEST POP PUSH2 0xEC PUSH1 0x4 DUP1 CALLDATASIZE SUB DUP2 ADD SWAP1 PUSH2 0xE7 SWAP2 SWAP1 PUSH2 0xA17 JUMP JUMPDEST PUSH2 0x34E JUMP JUMPDEST PUSH1 0x40 MLOAD PUSH2 0xFC SWAP5 SWAP4 SWAP3 SWAP2 SWAP1 PUSH2 0xD4D JUMP JUMPDEST PUSH1 0x40 MLOAD DUP1 SWAP2 SUB SWAP1 RETURN JUMPDEST PUSH2 0x11F PUSH1 0x4 DUP1 CALLDATASIZE SUB DUP2 ADD SWAP1 PUSH2 0x11A SWAP2 SWAP1 PUSH2 0xA8D JUMP JUMPDEST PUSH2 0x433 JUMP JUMPDEST STOP JUMPDEST CALLVALUE DUP1 ISZERO PUSH2 0x12D JUMPI PUSH1 0x0 DUP1 REVERT JUMPDEST POP PUSH2 0x148 PUSH1 0x4 DUP1 CALLDATASIZE SUB DUP2 ADD SWAP1 PUSH2 0x143 SWAP2 SWAP1 PUSH2 0xB10 JUMP JUMPDEST PUSH2 0x79A JUMP JUMPDEST STOP JUMPDEST PUSH1 0x1 DUP2 DUP1 MLOAD PUSH1 0x20 DUP2 ADD DUP3 ADD DUP1 MLOAD DUP5 DUP3 MSTORE PUSH1 0x20 DUP4 ADD PUSH1 0x20 DUP6 ADD KECCAK256 DUP2 DUP4 MSTORE DUP1 SWAP6 POP POP POP POP POP POP PUSH1 0x0 SWAP2 POP SWAP1 POP DUP1 PUSH1 0x0 ADD DUP1 SLOAD PUSH2 0x183 SWAP1 PUSH2 0xF2C JUMP JUMPDEST DUP1 PUSH1 0x1F ADD PUSH1 0x20 DUP1 SWAP2 DIV MUL PUSH1 0x20 ADD PUSH1 0x40 MLOAD SWAP1 DUP2 ADD PUSH1 0x40 MSTORE DUP1 SWAP3 SWAP2 SWAP1 DUP2 DUP2 MSTORE PUSH1 0x20 ADD DUP3 DUP1 SLOAD PUSH2 0x1AF SWAP1 PUSH2 0xF2C JUMP JUMPDEST DUP1 ISZERO PUSH2 0x1FC JUMPI DUP1 PUSH1 0x1F LT PUSH2 0x1D1 JUMPI PUSH2 0x100 DUP1 DUP4 SLOAD DIV MUL DUP4 MSTORE SWAP2 PUSH1 0x20 ADD SWAP2 PUSH2 0x1FC JUMP JUMPDEST DUP3 ADD SWAP2 SWAP1 PUSH1 0x0 MSTORE PUSH1 0x20 PUSH1 0x0 KECCAK256 SWAP1 JUMPDEST DUP2 SLOAD DUP2 MSTORE SWAP1 PUSH1 0x1 ADD SWAP1 PUSH1 0x20 ADD DUP1 DUP4 GT PUSH2 0x1DF JUMPI DUP3 SWAP1 SUB PUSH1 0x1F AND DUP3 ADD SWAP2 JUMPDEST POP POP POP POP POP SWAP1 DUP1 PUSH1 0x1 ADD DUP1 SLOAD PUSH2 0x211 SWAP1 PUSH2 0xF2C JUMP JUMPDEST DUP1 PUSH1 0x1F ADD PUSH1 0x20 DUP1 SWAP2 DIV MUL PUSH1 0x20 ADD PUSH1 0x40 MLOAD SWAP1 DUP2 ADD PUSH1 0x40 MSTORE DUP1 SWAP3 SWAP2 SWAP1 DUP2 DUP2 MSTORE PUSH1 0x20 ADD DUP3 DUP1 SLOAD PUSH2 0x23D SWAP1 PUSH2 0xF2C JUMP JUMPDEST DUP1 ISZERO PUSH2 0x28A JUMPI DUP1 PUSH1 0x1F LT PUSH2 0x25F JUMPI PUSH2 0x100 DUP1 DUP4 SLOAD DIV MUL DUP4 MSTORE SWAP2 PUSH1 0x20 ADD SWAP2 PUSH2 0x28A JUMP JUMPDEST DUP3 ADD SWAP2 SWAP1 PUSH1 0x0 MSTORE PUSH1 0x20 PUSH1 0x0 KECCAK256 SWAP1 JUMPDEST DUP2 SLOAD DUP2 MSTORE SWAP1 PUSH1 0x1 ADD SWAP1 PUSH1 0x20 ADD DUP1 DUP4 GT PUSH2 0x26D JUMPI DUP3 SWAP1 SUB PUSH1 0x1F AND DUP3 ADD SWAP2 JUMPDEST POP POP POP POP POP SWAP1 DUP1 PUSH1 0x2 ADD SLOAD SWAP1 DUP1 PUSH1 0x3 ADD PUSH1 0x0 SWAP1 SLOAD SWAP1 PUSH2 0x100 EXP SWAP1 DIV PUSH20 0xFFFFFFFFFFFFFFFFFFFFFFFFFFFFFFFFFFFFFFFF AND SWAP1 POP DUP5 JUMP JUMPDEST PUSH1 0x0 DUP1 SLOAD PUSH2 0x2CD SWAP1 PUSH2 0xF2C JUMP JUMPDEST DUP1 PUSH1 0x1F ADD PUSH1 0x20 DUP1 SWAP2 DIV MUL PUSH1 0x20 ADD PUSH1 0x40 MLOAD SWAP1 DUP2 ADD PUSH1 0x40 MSTORE DUP1 SWAP3 SWAP2 SWAP1 DUP2 DUP2 MSTORE PUSH1 0x20 ADD DUP3 DUP1 SLOAD PUSH2 0x2F9 SWAP1 PUSH2 0xF2C JUMP JUMPDEST DUP1 ISZERO PUSH2 0x346 JUMPI DUP1 PUSH1 0x1F LT PUSH2 0x31B JUMPI PUSH2 0x100 DUP1 DUP4 SLOAD DIV MUL DUP4 MSTORE SWAP2 PUSH1 0x20 ADD SWAP2 PUSH2 0x346 JUMP JUMPDEST DUP3 ADD SWAP2 SWAP1 PUSH1 0x0 MSTORE PUSH1 0x20 PUSH1 0x0 KECCAK256 SWAP1 JUMPDEST DUP2 SLOAD DUP2 MSTORE SWAP1 PUSH1 0x1 ADD SWAP1 PUSH1 0x20 ADD DUP1 DUP4 GT PUSH2 0x329 JUMPI DUP3 SWAP1 SUB PUSH1 0x1F AND DUP3 ADD SWAP2 JUMPDEST POP POP POP POP POP DUP2 JUMP JUMPDEST PUSH1 0x2 PUSH1 0x20 MSTORE DUP1 PUSH1 0x0 MSTORE PUSH1 0x40 PUSH1 0x0 KECCAK256 PUSH1 0x0 SWAP2 POP SWAP1 POP DUP1 PUSH1 0x0 ADD DUP1 SLOAD PUSH2 0x371 SWAP1 PUSH2 0xF2C JUMP JUMPDEST DUP1 PUSH1 0x1F ADD PUSH1 0x20 DUP1 SWAP2 DIV MUL PUSH1 0x20 ADD PUSH1 0x40 MLOAD SWAP1 DUP2 ADD PUSH1 0x40 MSTORE DUP1 SWAP3 SWAP2 SWAP1 DUP2 DUP2 MSTORE PUSH1 0x20 ADD DUP3 DUP1 SLOAD PUSH2 0x39D SWAP1 PUSH2 0xF2C JUMP JUMPDEST DUP1 ISZERO PUSH2 0x3EA JUMPI DUP1 PUSH1 0x1F LT PUSH2 0x3BF JUMPI PUSH2 0x100 DUP1 DUP4 SLOAD DIV MUL DUP4 MSTORE SWAP2 PUSH1 0x20 ADD SWAP2 PUSH2 0x3EA JUMP JUMPDEST DUP3 ADD SWAP2 SWAP1 PUSH1 0x0 MSTORE PUSH1 0x20 PUSH1 0x0 KECCAK256 SWAP1 JUMPDEST DUP2 SLOAD DUP2 MSTORE SWAP1 PUSH1 0x1 ADD SWAP1 PUSH1 0x20 ADD DUP1 DUP4 GT PUSH2 0x3CD JUMPI DUP3 SWAP1 SUB PUSH1 0x1F AND DUP3 ADD SWAP2 JUMPDEST POP POP POP POP POP SWAP1 DUP1 PUSH1 0x1 ADD SLOAD SWAP1 DUP1 PUSH1 0x2 ADD PUSH1 0x0 SWAP1 SLOAD SWAP1 PUSH2 0x100 EXP SWAP1 DIV PUSH20 0xFFFFFFFFFFFFFFFFFFFFFFFFFFFFFFFFFFFFFFFF AND SWAP1 DUP1 PUSH1 0x2 ADD PUSH1 0x14 SWAP1 SLOAD SWAP1 PUSH2 0x100 EXP SWAP1 DIV PUSH1 0xFF AND SWAP1 POP DUP5 JUMP JUMPDEST DUP4 PUSH1 0x2 PUSH1 0x0 DUP5 PUSH20 0xFFFFFFFFFFFFFFFFFFFFFFFFFFFFFFFFFFFFFFFF AND PUSH20 0xFFFFFFFFFFFFFFFFFFFFFFFFFFFFFFFFFFFFFFFF AND DUP2 MSTORE PUSH1 0x20 ADD SWAP1 DUP2 MSTORE PUSH1 0x20 ADD PUSH1 0x0 KECCAK256 PUSH1 0x0 ADD SWAP1 DUP1 MLOAD SWAP1 PUSH1 0x20 ADD SWAP1 PUSH2 0x489 SWAP3 SWAP2 SWAP1 PUSH2 0x8DA JUMP JUMPDEST POP DUP3 PUSH1 0x2 PUSH1 0x0 DUP5 PUSH20 0xFFFFFFFFFFFFFFFFFFFFFFFFFFFFFFFFFFFFFFFF AND PUSH20 0xFFFFFFFFFFFFFFFFFFFFFFFFFFFFFFFFFFFFFFFF AND DUP2 MSTORE PUSH1 0x20 ADD SWAP1 DUP2 MSTORE PUSH1 0x20 ADD PUSH1 0x0 KECCAK256 PUSH1 0x1 ADD DUP2 SWAP1 SSTORE POP DUP2 PUSH1 0x2 PUSH1 0x0 DUP5 PUSH20 0xFFFFFFFFFFFFFFFFFFFFFFFFFFFFFFFFFFFFFFFF AND PUSH20 0xFFFFFFFFFFFFFFFFFFFFFFFFFFFFFFFFFFFFFFFF AND DUP2 MSTORE PUSH1 0x20 ADD SWAP1 DUP2 MSTORE PUSH1 0x20 ADD PUSH1 0x0 KECCAK256 PUSH1 0x2 ADD PUSH1 0x0 PUSH2 0x100 EXP DUP2 SLOAD DUP2 PUSH20 0xFFFFFFFFFFFFFFFFFFFFFFFFFFFFFFFFFFFFFFFF MUL NOT AND SWAP1 DUP4 PUSH20 0xFFFFFFFFFFFFFFFFFFFFFFFFFFFFFFFFFFFFFFFF AND MUL OR SWAP1 SSTORE POP PUSH1 0x0 CALLVALUE GT PUSH2 0x55F JUMPI PUSH1 0x0 DUP1 REVERT JUMPDEST DUP1 PUSH20 0xFFFFFFFFFFFFFFFFFFFFFFFFFFFFFFFFFFFFFFFF AND PUSH2 0x8FC CALLVALUE SWAP1 DUP2 ISZERO MUL SWAP1 PUSH1 0x40 MLOAD PUSH1 0x0 PUSH1 0x40 MLOAD DUP1 DUP4 SUB DUP2 DUP6 DUP9 DUP9 CALL SWAP4 POP POP POP POP ISZERO DUP1 ISZERO PUSH2 0x5A5 JUMPI RETURNDATASIZE PUSH1 0x0 DUP1 RETURNDATACOPY RETURNDATASIZE PUSH1 0x0 REVERT JUMPDEST POP PUSH1 0x0 PUSH1 0x2 PUSH1 0x0 DUP5 PUSH20 0xFFFFFFFFFFFFFFFFFFFFFFFFFFFFFFFFFFFFFFFF AND PUSH20 0xFFFFFFFFFFFFFFFFFFFFFFFFFFFFFFFFFFFFFFFF AND DUP2 MSTORE PUSH1 0x20 ADD SWAP1 DUP2 MSTORE PUSH1 0x20 ADD PUSH1 0x0 KECCAK256 PUSH1 0x2 ADD PUSH1 0x14 PUSH2 0x100 EXP DUP2 SLOAD DUP2 PUSH1 0xFF MUL NOT AND SWAP1 DUP4 PUSH1 0x1 DUP2 GT ISZERO PUSH2 0x60C JUMPI PUSH2 0x60B PUSH2 0xF8F JUMP JUMPDEST JUMPDEST MUL OR SWAP1 SSTORE POP PUSH32 0x90631BE4066F06410554548E1727A018DC8A557B25B4D9F95428F291BFD94B0C PUSH1 0x2 PUSH1 0x0 DUP5 PUSH20 0xFFFFFFFFFFFFFFFFFFFFFFFFFFFFFFFFFFFFFFFF AND PUSH20 0xFFFFFFFFFFFFFFFFFFFFFFFFFFFFFFFFFFFFFFFF AND DUP2 MSTORE PUSH1 0x20 ADD SWAP1 DUP2 MSTORE PUSH1 0x20 ADD PUSH1 0x0 KECCAK256 PUSH1 0x0 ADD PUSH1 0x2 PUSH1 0x0 DUP6 PUSH20 0xFFFFFFFFFFFFFFFFFFFFFFFFFFFFFFFFFFFFFFFF AND PUSH20 0xFFFFFFFFFFFFFFFFFFFFFFFFFFFFFFFFFFFFFFFF AND DUP2 MSTORE PUSH1 0x20 ADD SWAP1 DUP2 MSTORE PUSH1 0x20 ADD PUSH1 0x0 KECCAK256 PUSH1 0x1 ADD SLOAD PUSH1 0x2 PUSH1 0x0 DUP7 PUSH20 0xFFFFFFFFFFFFFFFFFFFFFFFFFFFFFFFFFFFFFFFF AND PUSH20 0xFFFFFFFFFFFFFFFFFFFFFFFFFFFFFFFFFFFFFFFF AND DUP2 MSTORE PUSH1 0x20 ADD SWAP1 DUP2 MSTORE PUSH1 0x20 ADD PUSH1 0x0 KECCAK256 PUSH1 0x2 ADD PUSH1 0x14 SWAP1 SLOAD SWAP1 PUSH2 0x100 EXP SWAP1 DIV PUSH1 0xFF AND PUSH1 0x1 DUP2 GT ISZERO PUSH2 0x719 JUMPI PUSH2 0x718 PUSH2 0xF8F JUMP JUMPDEST JUMPDEST PUSH1 0x2 PUSH1 0x0 DUP8 PUSH20 0xFFFFFFFFFFFFFFFFFFFFFFFFFFFFFFFFFFFFFFFF AND PUSH20 0xFFFFFFFFFFFFFFFFFFFFFFFFFFFFFFFFFFFFFFFF AND DUP2 MSTORE PUSH1 0x20 ADD SWAP1 DUP2 MSTORE PUSH1 0x20 ADD PUSH1 0x0 KECCAK256 PUSH1 0x2 ADD PUSH1 0x0 SWAP1 SLOAD SWAP1 PUSH2 0x100 EXP SWAP1 DIV PUSH20 0xFFFFFFFFFFFFFFFFFFFFFFFFFFFFFFFFFFFFFFFF AND PUSH1 0x40 MLOAD PUSH2 0x78C SWAP5 SWAP4 SWAP3 SWAP2 SWAP1 PUSH2 0xD99 JUMP JUMPDEST PUSH1 0x40 MLOAD DUP1 SWAP2 SUB SWAP1 LOG1 POP POP POP POP JUMP JUMPDEST PUSH1 0x0 DUP4 MLOAD GT PUSH2 0x7A8 JUMPI PUSH1 0x0 DUP1 REVERT JUMPDEST PUSH1 0x0 DUP3 GT PUSH2 0x7B5 JUMPI PUSH1 0x0 DUP1 REVERT JUMPDEST PUSH1 0x40 MLOAD DUP1 PUSH1 0x80 ADD PUSH1 0x40 MSTORE DUP1 DUP3 DUP2 MSTORE PUSH1 0x20 ADD DUP5 DUP2 MSTORE PUSH1 0x20 ADD DUP4 DUP2 MSTORE PUSH1 0x20 ADD CALLER PUSH20 0xFFFFFFFFFFFFFFFFFFFFFFFFFFFFFFFFFFFFFFFF AND DUP2 MSTORE POP PUSH1 0x1 DUP3 PUSH1 0x40 MLOAD PUSH2 0x7FC SWAP2 SWAP1 PUSH2 0xCC1 JUMP JUMPDEST SWAP1 DUP2 MSTORE PUSH1 0x20 ADD PUSH1 0x40 MLOAD DUP1 SWAP2 SUB SWAP1 KECCAK256 PUSH1 0x0 DUP3 ADD MLOAD DUP2 PUSH1 0x0 ADD SWAP1 DUP1 MLOAD SWAP1 PUSH1 0x20 ADD SWAP1 PUSH2 0x826 SWAP3 SWAP2 SWAP1 PUSH2 0x8DA JUMP JUMPDEST POP PUSH1 0x20 DUP3 ADD MLOAD DUP2 PUSH1 0x1 ADD SWAP1 DUP1 MLOAD SWAP1 PUSH1 0x20 ADD SWAP1 PUSH2 0x843 SWAP3 SWAP2 SWAP1 PUSH2 0x8DA JUMP JUMPDEST POP PUSH1 0x40 DUP3 ADD MLOAD DUP2 PUSH1 0x2 ADD SSTORE PUSH1 0x60 DUP3 ADD MLOAD DUP2 PUSH1 0x3 ADD PUSH1 0x0 PUSH2 0x100 EXP DUP2 SLOAD DUP2 PUSH20 0xFFFFFFFFFFFFFFFFFFFFFFFFFFFFFFFFFFFFFFFF MUL NOT AND SWAP1 DUP4 PUSH20 0xFFFFFFFFFFFFFFFFFFFFFFFFFFFFFFFFFFFFFFFF AND MUL OR SWAP1 SSTORE POP SWAP1 POP POP PUSH32 0x813A92EF225FAA2AE1B6A264461C81DE5095AE357A69677FBB89264D2B0A0C45 DUP2 DUP5 DUP5 CALLER PUSH1 0x40 MLOAD PUSH2 0x8CD SWAP5 SWAP4 SWAP3 SWAP2 SWAP1 PUSH2 0xCFA JUMP JUMPDEST PUSH1 0x40 MLOAD DUP1 SWAP2 SUB SWAP1 LOG1 POP POP POP JUMP JUMPDEST DUP3 DUP1 SLOAD PUSH2 0x8E6 SWAP1 PUSH2 0xF2C JUMP JUMPDEST SWAP1 PUSH1 0x0 MSTORE PUSH1 0x20 PUSH1 0x0 KECCAK256 SWAP1 PUSH1 0x1F ADD PUSH1 0x20 SWAP1 DIV DUP2 ADD SWAP3 DUP3 PUSH2 0x908 JUMPI PUSH1 0x0 DUP6 SSTORE PUSH2 0x94F JUMP JUMPDEST DUP3 PUSH1 0x1F LT PUSH2 0x921 JUMPI DUP1 MLOAD PUSH1 0xFF NOT AND DUP4 DUP1 ADD OR DUP6 SSTORE PUSH2 0x94F JUMP JUMPDEST DUP3 DUP1 ADD PUSH1 0x1 ADD DUP6 SSTORE DUP3 ISZERO PUSH2 0x94F JUMPI SWAP2 DUP3 ADD JUMPDEST DUP3 DUP2 GT ISZERO PUSH2 0x94E JUMPI DUP3 MLOAD DUP3 SSTORE SWAP2 PUSH1 0x20 ADD SWAP2 SWAP1 PUSH1 0x1 ADD SWAP1 PUSH2 0x933 JUMP JUMPDEST JUMPDEST POP SWAP1 POP PUSH2 0x95C SWAP2 SWAP1 PUSH2 0x960 JUMP JUMPDEST POP SWAP1 JUMP JUMPDEST JUMPDEST DUP1 DUP3 GT ISZERO PUSH2 0x979 JUMPI PUSH1 0x0 DUP2 PUSH1 0x0 SWAP1 SSTORE POP PUSH1 0x1 ADD PUSH2 0x961 JUMP JUMPDEST POP SWAP1 JUMP JUMPDEST PUSH1 0x0 PUSH2 0x990 PUSH2 0x98B DUP5 PUSH2 0xE0A JUMP JUMPDEST PUSH2 0xDE5 JUMP JUMPDEST SWAP1 POP DUP3 DUP2 MSTORE PUSH1 0x20 DUP2 ADD DUP5 DUP5 DUP5 ADD GT ISZERO PUSH2 0x9AC JUMPI PUSH2 0x9AB PUSH2 0x1021 JUMP JUMPDEST JUMPDEST PUSH2 0x9B7 DUP5 DUP3 DUP6 PUSH2 0xEEA JUMP JUMPDEST POP SWAP4 SWAP3 POP POP POP JUMP JUMPDEST PUSH1 0x0 DUP2 CALLDATALOAD SWAP1 POP PUSH2 0x9CE DUP2 PUSH2 0x1055 JUMP JUMPDEST SWAP3 SWAP2 POP POP JUMP JUMPDEST PUSH1 0x0 DUP3 PUSH1 0x1F DUP4 ADD SLT PUSH2 0x9E9 JUMPI PUSH2 0x9E8 PUSH2 0x101C JUMP JUMPDEST JUMPDEST DUP2 CALLDATALOAD PUSH2 0x9F9 DUP5 DUP3 PUSH1 0x20 DUP7 ADD PUSH2 0x97D JUMP JUMPDEST SWAP2 POP POP SWAP3 SWAP2 POP POP JUMP JUMPDEST PUSH1 0x0 DUP2 CALLDATALOAD SWAP1 POP PUSH2 0xA11 DUP2 PUSH2 0x106C JUMP JUMPDEST SWAP3 SWAP2 POP POP JUMP JUMPDEST PUSH1 0x0 PUSH1 0x20 DUP3 DUP5 SUB SLT ISZERO PUSH2 0xA2D JUMPI PUSH2 0xA2C PUSH2 0x102B JUMP JUMPDEST JUMPDEST PUSH1 0x0 PUSH2 0xA3B DUP5 DUP3 DUP6 ADD PUSH2 0x9BF JUMP JUMPDEST SWAP2 POP POP SWAP3 SWAP2 POP POP JUMP JUMPDEST PUSH1 0x0 PUSH1 0x20 DUP3 DUP5 SUB SLT ISZERO PUSH2 0xA5A JUMPI PUSH2 0xA59 PUSH2 0x102B JUMP JUMPDEST JUMPDEST PUSH1 0x0 DUP3 ADD CALLDATALOAD PUSH8 0xFFFFFFFFFFFFFFFF DUP2 GT ISZERO PUSH2 0xA78 JUMPI PUSH2 0xA77 PUSH2 0x1026 JUMP JUMPDEST JUMPDEST PUSH2 0xA84 DUP5 DUP3 DUP6 ADD PUSH2 0x9D4 JUMP JUMPDEST SWAP2 POP POP SWAP3 SWAP2 POP POP JUMP JUMPDEST PUSH1 0x0 DUP1 PUSH1 0x0 DUP1 PUSH1 0x80 DUP6 DUP8 SUB SLT ISZERO PUSH2 0xAA7 JUMPI PUSH2 0xAA6 PUSH2 0x102B JUMP JUMPDEST JUMPDEST PUSH1 0x0 DUP6 ADD CALLDATALOAD PUSH8 0xFFFFFFFFFFFFFFFF DUP2 GT ISZERO PUSH2 0xAC5 JUMPI PUSH2 0xAC4 PUSH2 0x1026 JUMP JUMPDEST JUMPDEST PUSH2 0xAD1 DUP8 DUP3 DUP9 ADD PUSH2 0x9D4 JUMP JUMPDEST SWAP5 POP POP PUSH1 0x20 PUSH2 0xAE2 DUP8 DUP3 DUP9 ADD PUSH2 0xA02 JUMP JUMPDEST SWAP4 POP POP PUSH1 0x40 PUSH2 0xAF3 DUP8 DUP3 DUP9 ADD PUSH2 0x9BF JUMP JUMPDEST SWAP3 POP POP PUSH1 0x60 PUSH2 0xB04 DUP8 DUP3 DUP9 ADD PUSH2 0x9BF JUMP JUMPDEST SWAP2 POP POP SWAP3 SWAP6 SWAP2 SWAP5 POP SWAP3 POP JUMP JUMPDEST PUSH1 0x0 DUP1 PUSH1 0x0 PUSH1 0x60 DUP5 DUP7 SUB SLT ISZERO PUSH2 0xB29 JUMPI PUSH2 0xB28 PUSH2 0x102B JUMP JUMPDEST JUMPDEST PUSH1 0x0 DUP5 ADD CALLDATALOAD PUSH8 0xFFFFFFFFFFFFFFFF DUP2 GT ISZERO PUSH2 0xB47 JUMPI PUSH2 0xB46 PUSH2 0x1026 JUMP JUMPDEST JUMPDEST PUSH2 0xB53 DUP7 DUP3 DUP8 ADD PUSH2 0x9D4 JUMP JUMPDEST SWAP4 POP POP PUSH1 0x20 PUSH2 0xB64 DUP7 DUP3 DUP8 ADD PUSH2 0xA02 JUMP JUMPDEST SWAP3 POP POP PUSH1 0x40 DUP5 ADD CALLDATALOAD PUSH8 0xFFFFFFFFFFFFFFFF DUP2 GT ISZERO PUSH2 0xB85 JUMPI PUSH2 0xB84 PUSH2 0x1026 JUMP JUMPDEST JUMPDEST PUSH2 0xB91 DUP7 DUP3 DUP8 ADD PUSH2 0x9D4 JUMP JUMPDEST SWAP2 POP POP SWAP3 POP SWAP3 POP SWAP3 JUMP JUMPDEST PUSH2 0xBA4 DUP2 PUSH2 0xE89 JUMP JUMPDEST DUP3 MSTORE POP POP JUMP JUMPDEST PUSH2 0xBB3 DUP2 PUSH2 0xE77 JUMP JUMPDEST DUP3 MSTORE POP POP JUMP JUMPDEST PUSH2 0xBC2 DUP2 PUSH2 0xED8 JUMP JUMPDEST DUP3 MSTORE POP POP JUMP JUMPDEST PUSH1 0x0 PUSH2 0xBD3 DUP3 PUSH2 0xE50 JUMP JUMPDEST PUSH2 0xBDD DUP2 DUP6 PUSH2 0xE5B JUMP JUMPDEST SWAP4 POP PUSH2 0xBED DUP2 DUP6 PUSH1 0x20 DUP7 ADD PUSH2 0xEF9 JUMP JUMPDEST PUSH2 0xBF6 DUP2 PUSH2 0x1030 JUMP JUMPDEST DUP5 ADD SWAP2 POP POP SWAP3 SWAP2 POP POP JUMP JUMPDEST PUSH1 0x0 PUSH2 0xC0C DUP3 PUSH2 0xE50 JUMP JUMPDEST PUSH2 0xC16 DUP2 DUP6 PUSH2 0xE6C JUMP JUMPDEST SWAP4 POP PUSH2 0xC26 DUP2 DUP6 PUSH1 0x20 DUP7 ADD PUSH2 0xEF9 JUMP JUMPDEST DUP1 DUP5 ADD SWAP2 POP POP SWAP3 SWAP2 POP POP JUMP JUMPDEST PUSH1 0x0 DUP2 SLOAD PUSH2 0xC3F DUP2 PUSH2 0xF2C JUMP JUMPDEST PUSH2 0xC49 DUP2 DUP7 PUSH2 0xE5B JUMP JUMPDEST SWAP5 POP PUSH1 0x1 DUP3 AND PUSH1 0x0 DUP2 EQ PUSH2 0xC64 JUMPI PUSH1 0x1 DUP2 EQ PUSH2 0xC76 JUMPI PUSH2 0xCA9 JUMP JUMPDEST PUSH1 0xFF NOT DUP4 AND DUP7 MSTORE PUSH1 0x20 DUP7 ADD SWAP4 POP PUSH2 0xCA9 JUMP JUMPDEST PUSH2 0xC7F DUP6 PUSH2 0xE3B JUMP JUMPDEST PUSH1 0x0 JUMPDEST DUP4 DUP2 LT ISZERO PUSH2 0xCA1 JUMPI DUP2 SLOAD DUP2 DUP10 ADD MSTORE PUSH1 0x1 DUP3 ADD SWAP2 POP PUSH1 0x20 DUP2 ADD SWAP1 POP PUSH2 0xC82 JUMP JUMPDEST DUP1 DUP9 ADD SWAP6 POP POP POP JUMPDEST POP POP POP SWAP3 SWAP2 POP POP JUMP JUMPDEST PUSH2 0xCBB DUP2 PUSH2 0xECE JUMP JUMPDEST DUP3 MSTORE POP POP JUMP JUMPDEST PUSH1 0x0 PUSH2 0xCCD DUP3 DUP5 PUSH2 0xC01 JUMP JUMPDEST SWAP2 POP DUP2 SWAP1 POP SWAP3 SWAP2 POP POP JUMP JUMPDEST PUSH1 0x0 PUSH1 0x20 DUP3 ADD SWAP1 POP DUP2 DUP2 SUB PUSH1 0x0 DUP4 ADD MSTORE PUSH2 0xCF2 DUP2 DUP5 PUSH2 0xBC8 JUMP JUMPDEST SWAP1 POP SWAP3 SWAP2 POP POP JUMP JUMPDEST PUSH1 0x0 PUSH1 0x80 DUP3 ADD SWAP1 POP DUP2 DUP2 SUB PUSH1 0x0 DUP4 ADD MSTORE PUSH2 0xD14 DUP2 DUP8 PUSH2 0xBC8 JUMP JUMPDEST SWAP1 POP DUP2 DUP2 SUB PUSH1 0x20 DUP4 ADD MSTORE PUSH2 0xD28 DUP2 DUP7 PUSH2 0xBC8 JUMP JUMPDEST SWAP1 POP PUSH2 0xD37 PUSH1 0x40 DUP4 ADD DUP6 PUSH2 0xCB2 JUMP JUMPDEST PUSH2 0xD44 PUSH1 0x60 DUP4 ADD DUP5 PUSH2 0xB9B JUMP JUMPDEST SWAP6 SWAP5 POP POP POP POP POP JUMP JUMPDEST PUSH1 0x0 PUSH1 0x80 DUP3 ADD SWAP1 POP DUP2 DUP2 SUB PUSH1 0x0 DUP4 ADD MSTORE PUSH2 0xD67 DUP2 DUP8 PUSH2 0xBC8 JUMP JUMPDEST SWAP1 POP PUSH2 0xD76 PUSH1 0x20 DUP4 ADD DUP7 PUSH2 0xCB2 JUMP JUMPDEST PUSH2 0xD83 PUSH1 0x40 DUP4 ADD DUP6 PUSH2 0xBAA JUMP JUMPDEST PUSH2 0xD90 PUSH1 0x60 DUP4 ADD DUP5 PUSH2 0xBB9 JUMP JUMPDEST SWAP6 SWAP5 POP POP POP POP POP JUMP JUMPDEST PUSH1 0x0 PUSH1 0x80 DUP3 ADD SWAP1 POP DUP2 DUP2 SUB PUSH1 0x0 DUP4 ADD MSTORE PUSH2 0xDB3 DUP2 DUP8 PUSH2 0xC32 JUMP JUMPDEST SWAP1 POP PUSH2 0xDC2 PUSH1 0x20 DUP4 ADD DUP7 PUSH2 0xCB2 JUMP JUMPDEST PUSH2 0xDCF PUSH1 0x40 DUP4 ADD DUP6 PUSH2 0xCB2 JUMP JUMPDEST PUSH2 0xDDC PUSH1 0x60 DUP4 ADD DUP5 PUSH2 0xBAA JUMP JUMPDEST SWAP6 SWAP5 POP POP POP POP POP JUMP JUMPDEST PUSH1 0x0 PUSH2 0xDEF PUSH2 0xE00 JUMP JUMPDEST SWAP1 POP PUSH2 0xDFB DUP3 DUP3 PUSH2 0xF5E JUMP JUMPDEST SWAP2 SWAP1 POP JUMP JUMPDEST PUSH1 0x0 PUSH1 0x40 MLOAD SWAP1 POP SWAP1 JUMP JUMPDEST PUSH1 0x0 PUSH8 0xFFFFFFFFFFFFFFFF DUP3 GT ISZERO PUSH2 0xE25 JUMPI PUSH2 0xE24 PUSH2 0xFED JUMP JUMPDEST JUMPDEST PUSH2 0xE2E DUP3 PUSH2 0x1030 JUMP JUMPDEST SWAP1 POP PUSH1 0x20 DUP2 ADD SWAP1 POP SWAP2 SWAP1 POP JUMP JUMPDEST PUSH1 0x0 DUP2 SWAP1 POP DUP2 PUSH1 0x0 MSTORE PUSH1 0x20 PUSH1 0x0 KECCAK256 SWAP1 POP SWAP2 SWAP1 POP JUMP JUMPDEST PUSH1 0x0 DUP2 MLOAD SWAP1 POP SWAP2 SWAP1 POP JUMP JUMPDEST PUSH1 0x0 DUP3 DUP3 MSTORE PUSH1 0x20 DUP3 ADD SWAP1 POP SWAP3 SWAP2 POP POP JUMP JUMPDEST PUSH1 0x0 DUP2 SWAP1 POP SWAP3 SWAP2 POP POP JUMP JUMPDEST PUSH1 0x0 PUSH2 0xE82 DUP3 PUSH2 0xEAE JUMP JUMPDEST SWAP1 POP SWAP2 SWAP1 POP JUMP JUMPDEST PUSH1 0x0 PUSH2 0xE94 DUP3 PUSH2 0xEAE JUMP JUMPDEST SWAP1 POP SWAP2 SWAP1 POP JUMP JUMPDEST PUSH1 0x0 DUP2 SWAP1 POP PUSH2 0xEA9 DUP3 PUSH2 0x1041 JUMP JUMPDEST SWAP2 SWAP1 POP JUMP JUMPDEST PUSH1 0x0 PUSH20 0xFFFFFFFFFFFFFFFFFFFFFFFFFFFFFFFFFFFFFFFF DUP3 AND SWAP1 POP SWAP2 SWAP1 POP JUMP JUMPDEST PUSH1 0x0 DUP2 SWAP1 POP SWAP2 SWAP1 POP JUMP JUMPDEST PUSH1 0x0 PUSH2 0xEE3 DUP3 PUSH2 0xE9B JUMP JUMPDEST SWAP1 POP SWAP2 SWAP1 POP JUMP JUMPDEST DUP3 DUP2 DUP4 CALLDATACOPY PUSH1 0x0 DUP4 DUP4 ADD MSTORE POP POP POP JUMP JUMPDEST PUSH1 0x0 JUMPDEST DUP4 DUP2 LT ISZERO PUSH2 0xF17 JUMPI DUP1 DUP3 ADD MLOAD DUP2 DUP5 ADD MSTORE PUSH1 0x20 DUP2 ADD SWAP1 POP PUSH2 0xEFC JUMP JUMPDEST DUP4 DUP2 GT ISZERO PUSH2 0xF26 JUMPI PUSH1 0x0 DUP5 DUP5 ADD MSTORE JUMPDEST POP POP POP POP JUMP JUMPDEST PUSH1 0x0 PUSH1 0x2 DUP3 DIV SWAP1 POP PUSH1 0x1 DUP3 AND DUP1 PUSH2 0xF44 JUMPI PUSH1 0x7F DUP3 AND SWAP2 POP JUMPDEST PUSH1 0x20 DUP3 LT DUP2 EQ ISZERO PUSH2 0xF58 JUMPI PUSH2 0xF57 PUSH2 0xFBE JUMP JUMPDEST JUMPDEST POP SWAP2 SWAP1 POP JUMP JUMPDEST PUSH2 0xF67 DUP3 PUSH2 0x1030 JUMP JUMPDEST DUP2 ADD DUP2 DUP2 LT PUSH8 0xFFFFFFFFFFFFFFFF DUP3 GT OR ISZERO PUSH2 0xF86 JUMPI PUSH2 0xF85 PUSH2 0xFED JUMP JUMPDEST JUMPDEST DUP1 PUSH1 0x40 MSTORE POP POP POP JUMP JUMPDEST PUSH32 0x4E487B7100000000000000000000000000000000000000000000000000000000 PUSH1 0x0 MSTORE PUSH1 0x21 PUSH1 0x4 MSTORE PUSH1 0x24 PUSH1 0x0 REVERT JUMPDEST PUSH32 0x4E487B7100000000000000000000000000000000000000000000000000000000 PUSH1 0x0 MSTORE PUSH1 0x22 PUSH1 0x4 MSTORE PUSH1 0x24 PUSH1 0x0 REVERT JUMPDEST PUSH32 0x4E487B7100000000000000000000000000000000000000000000000000000000 PUSH1 0x0 MSTORE PUSH1 0x41 PUSH1 0x4 MSTORE PUSH1 0x24 PUSH1 0x0 REVERT JUMPDEST PUSH1 0x0 DUP1 REVERT JUMPDEST PUSH1 0x0 DUP1 REVERT JUMPDEST PUSH1 0x0 DUP1 REVERT JUMPDEST PUSH1 0x0 DUP1 REVERT JUMPDEST PUSH1 0x0 PUSH1 0x1F NOT PUSH1 0x1F DUP4 ADD AND SWAP1 POP SWAP2 SWAP1 POP JUMP JUMPDEST PUSH1 0x2 DUP2 LT PUSH2 0x1052 JUMPI PUSH2 0x1051 PUSH2 0xF8F JUMP JUMPDEST JUMPDEST POP JUMP JUMPDEST PUSH2 0x105E DUP2 PUSH2 0xE77 JUMP JUMPDEST DUP2 EQ PUSH2 0x1069 JUMPI PUSH1 0x0 DUP1 REVERT JUMPDEST POP JUMP JUMPDEST PUSH2 0x1075 DUP2 PUSH2 0xECE JUMP JUMPDEST DUP2 EQ PUSH2 0x1080 JUMPI PUSH1 0x0 DUP1 REVERT JUMPDEST POP JUMP INVALID LOG2 PUSH5 0x6970667358 0x22 SLT KECCAK256 0x4F MOD PUSH16 0xA81E5C54F063984AA48CB24F408D5CC SMOD EQ 0x4C 0xC1 REVERT 0xC8 EXTCODECOPY PUSH10 0xF47FF8A7DD64736F6C63 NUMBER STOP ADDMOD MOD STOP CALLER "
		},
		"gasEstimates": {
			"creation": {
				"codeDepositCost": "856200",
				"executionCost": "890",
				"totalCost": "857090"
			},
			"external": {
				"createOrder(string,uint256,address,address)": "infinite",
				"createProduct(string,uint256,string)": "infinite",
				"name()": "infinite",
				"order(address)": "infinite",
				"products(string)": "infinite"
			}
		},
		"methodIdentifiers": {
			"createOrder(string,uint256,address,address)": "d1e46a60",
			"createProduct(string,uint256,string)": "ff38ec0f",
			"name()": "06fdde03",
			"order(address)": "b7f84d97",
			"products(string)": "0186a423"
		}
	},
	"abi": [
		{
			"anonymous": false,
			"inputs": [
				{
					"indexed": false,
					"internalType": "string",
					"name": "_userId",
					"type": "string"
				},
				{
					"indexed": false,
					"internalType": "uint256",
					"name": "_orderPrice",
					"type": "uint256"
				},
				{
					"indexed": false,
					"internalType": "uint256",
					"name": "_step",
					"type": "uint256"
				},
				{
					"indexed": false,
					"internalType": "address",
					"name": "_userAddress",
					"type": "address"
				}
			],
			"name": "OrderChainStep",
			"type": "event",
			"signature": "0x90631be4066f06410554548e1727a018dc8a557b25b4d9f95428f291bfd94b0c"
		},
		{
			"anonymous": false,
			"inputs": [
				{
					"indexed": false,
					"internalType": "string",
					"name": "token",
					"type": "string"
				},
				{
					"indexed": false,
					"internalType": "string",
					"name": "name",
					"type": "string"
				},
				{
					"indexed": false,
					"internalType": "uint256",
					"name": "price",
					"type": "uint256"
				},
				{
					"indexed": false,
					"internalType": "address payable",
					"name": "owner",
					"type": "address"
				}
			],
			"name": "ProductCreated",
			"type": "event",
			"signature": "0x813a92ef225faa2ae1b6a264461c81de5095ae357a69677fbb89264d2b0a0c45"
		},
		{
			"anonymous": false,
			"inputs": [
				{
					"indexed": false,
					"internalType": "string",
					"name": "token",
					"type": "string"
				},
				{
					"indexed": false,
					"internalType": "string",
					"name": "name",
					"type": "string"
				},
				{
					"indexed": false,
					"internalType": "uint256",
					"name": "price",
					"type": "uint256"
				},
				{
					"indexed": false,
					"internalType": "address payable",
					"name": "owner",
					"type": "address"
				}
			],
			"name": "ProductPurchased",
			"type": "event",
			"signature": "0x8b11bafc6c9be637b2ff86ae4819c6b543d542d8af89bf33756f6d6bb3bca76e"
		},
		{
			"inputs": [
				{
					"internalType": "string",
					"name": "_userId",
					"type": "string"
				},
				{
					"internalType": "uint256",
					"name": "_orderPrice",
					"type": "uint256"
				},
				{
					"internalType": "address",
					"name": "_userAddress",
					"type": "address"
				},
				{
					"internalType": "address",
					"name": "_ownerAddress",
					"type": "address"
				}
			],
			"name": "createOrder",
			"outputs": [],
			"stateMutability": "payable",
			"type": "function",
			"payable": true,
			"signature": "0xd1e46a60"
		},
		{
			"inputs": [
				{
					"internalType": "string",
					"name": "_name",
					"type": "string"
				},
				{
					"internalType": "uint256",
					"name": "_price",
					"type": "uint256"
				},
				{
					"internalType": "string",
					"name": "_token",
					"type": "string"
				}
			],
			"name": "createProduct",
			"outputs": [],
			"stateMutability": "nonpayable",
			"type": "function",
			"signature": "0xff38ec0f"
		},
		{
			"inputs": [],
			"name": "name",
			"outputs": [
				{
					"internalType": "string",
					"name": "",
					"type": "string"
				}
			],
			"stateMutability": "view",
			"type": "function",
			"constant": true,
			"signature": "0x06fdde03"
		},
		{
			"inputs": [
				{
					"internalType": "address",
					"name": "",
					"type": "address"
				}
			],
			"name": "order",
			"outputs": [
				{
					"internalType": "string",
					"name": "_userId",
					"type": "string"
				},
				{
					"internalType": "uint256",
					"name": "_orderPrice",
					"type": "uint256"
				},
				{
					"internalType": "address",
					"name": "_userAddress",
					"type": "address"
				},
				{
					"internalType": "enum Marketplace.SupplyChainState",
					"name": "_state",
					"type": "uint8"
				}
			],
			"stateMutability": "view",
			"type": "function",
			"constant": true,
			"signature": "0xb7f84d97"
		},
		{
			"inputs": [
				{
					"internalType": "string",
					"name": "",
					"type": "string"
				}
			],
			"name": "products",
			"outputs": [
				{
					"internalType": "string",
					"name": "token",
					"type": "string"
				},
				{
					"internalType": "string",
					"name": "name",
					"type": "string"
				},
				{
					"internalType": "uint256",
					"name": "price",
					"type": "uint256"
				},
				{
					"internalType": "address payable",
					"name": "owner",
					"type": "address"
				}
			],
			"stateMutability": "view",
			"type": "function",
			"constant": true,
			"signature": "0x0186a423"
		},
		{
			"stateMutability": "payable",
			"type": "receive",
			"payable": true
		}
	]
}